:020000040800F2
:10000000002000203D0B000897030008990300081A
:1000100000000000000000000000000000000000E0
:100020000000000000000000000000009B0300082A
:1000300000000000000000009D0300089F0300086E
:100040008D0B00088D0B00088D0B00088D0B000830
:100050008D0B00088D0B00088D0B00088D0B000820
:100060008D0B00088D0B00088D0B00088D0B000810
:100070008D0B00088D0B00088D0B00088D0B000800
:100080008D0B00088D0B0008000000008D0B000890
:100090008D0B00088D0B00088D0B00088D0B0008E0
:1000A0008D0B00088D0B00088D0B00088D0B0008D0
:1000B0008D0B0008000000008D0B00080000000000
:1000C00010B5064C2378002B07D1054B002B02D02E
:1000D000044800E000BF0123237010BD0C00002085
:1000E00000000000E80B0008044B10B5002B03D003
:1000F0000349044800E000BF10BDC04600000000F6
:1001000010000020E80B000800200020110100086A
:1001100028484169284A1143416128485521C16056
:100120002749284A0A6000220027274E274D2348E6
:100130000169294C21422BD0284C21422BD0284C3C
:1001400021420DD0224C214212D0224C214217D004
:10015000002E29D11C4E0133FF2B21DC1A001CE09C
:10016000002D24D1194D0233FF2B19DC1A0014E0A5
:10017000002E19D1144E0233FF2B11DC1A000CE0B3
:10018000002D14D1114D0133FF2B09DC1A0004E0BE
:10019000AA22AA2301E01A00C9E709494A61C6E771
:1001A000002300241A00F8E7013EFDD1BFE7013D1E
:1001B000FDD1BCE70010024000000600000000482E
:1001C0000004004855550000C05C1500C027090018
:1001D0000100000002000000040000000800000010
:1001E00003000000002243088B4274D303098B42B2
:1001F0005FD3030A8B4244D3030B8B4228D3030CF7
:100200008B420DD3FF22090212BA030C8B4202D398
:100210001212090265D0030B8B4219D300E0090AC0
:10022000C30B8B4201D3CB03C01A5241830B8B42C9
:1002300001D38B03C01A5241430B8B4201D34B03B2
:10024000C01A5241030B8B4201D30B03C01A524117
:10025000C30A8B4201D3CB02C01A5241830A8B429C
:1002600001D38B02C01A5241430A8B4201D34B0285
:10027000C01A5241030A8B4201D30B02C01A5241E9
:10028000CDD2C3098B4201D3CB01C01A524183099D
:100290008B4201D38B01C01A524143098B4201D3D7
:1002A0004B01C01A524103098B4201D30B01C01A02
:1002B0005241C3088B4201D3CB00C01A524183087C
:1002C0008B4201D38B00C01A524143088B4201D3A9
:1002D0004B00C01A5241411A00D201465241104609
:1002E0007047FFE701B5002000F006F802BDC046E8
:1002F0000029F7D076E770477047C04682B00A4BB6
:100300005A698021C9030A435A615A690A40009216
:10031000009A5A69802189020A435A615B690B403D
:100320000193019B02B070470010024072B6FEE7D5
:1003300000B591B03022002104A800F028FC102262
:100340000021684600F023FC02230493013B07933D
:100350000F33089304A800F03FF800280DD10723BD
:10036000009300230193029303930021684600F059
:10037000ABFA002803D111B000BDFFF7D7FFFFF79C
:10038000D5FF10B500F062FBFFF7C2FEFFF7D0FF0C
:10039000FFF7B4FFFEE7FEE7FEE77047704710B5D2
:1003A00000F064FB10BD000082B00A4B9969012285
:1003B0001143996199690A400092009ADA69802193
:1003C00049050A43DA61DB690B400193019B02B0E6
:1003D0007047C0460010024070B582B0041E00D1C4
:1003E0002EE20368DB0726D5AE4B5A680C23134078
:1003F000042B18D0AB4B5A680C231340082B0ED09B
:100400006368012B3CD0002B51D1A64B1A68A6493A
:100410000A401A601A68A5490A401A6036E0A14BE2
:100420005B68DB03ECD59F4B1B689B0303D56368BC
:10043000002B00D107E223689B0772D5994B5B68BC
:100440000C221A425DD0974B5A680C231340082B9C
:1004500053D0E368002B00D185E0924A1368012154
:100460000B43136000F00EFB05008E4B1B689B07CF
:1004700070D400F007FB401B0228F6D90320E0E10E
:10048000884A116880235B020B4313606368002B6A
:1004900025D000F0F7FA0500824B1B689B03CAD4F5
:1004A00000F0F0FA401B6428F6D90320C9E1052BBF
:1004B00009D07C4B1A687C490A401A601A687B494B
:1004C0000A401A60E2E7774B19688022D2020A4399
:1004D0001A601968802252020A431A60D6E700F0B7
:1004E000D1FA05006F4B1B689B03A4D500F0CAFA34
:1004F000401B6428F6D90320A3E16A4B5B68DB0349
:10050000A7D4684B1B689B0703D5E368012B00D079
:100510009BE164490B68F82293432269D20013439C
:100520000B6023681B0744D5E369002B2ED05D4A7E
:10053000536A01210B43536200F0A4FA0500594BA2
:100540005B6A9B0735D400F09DFA401B0228F6D960
:10055000032076E153490B68F82293432269D200C5
:1005600013430B60DDE74F4A136801218B4313608F
:1005700000F088FA05004B4B1B689B07D1D500F0B3
:1005800081FA401B0228F6D903205AE1454A536AF2
:1005900001218B43536200F075FA0500414B5B6A01
:1005A0009B0706D500F06EFA401B0228F6D90320FF
:1005B00047E123685B0700D480E03A4BDB69DB004E
:1005C0001DD4384BDA69802149050A43DA61DB69B9
:1005D0000B400193019B0125354B1B68DB0510D5B2
:1005E000A368012B21D0002B36D12E4B1A6A012192
:1005F0008A431A621A6A03318A431A621AE0002592
:10060000EAE72B4A116880235B000B43136000F07C
:1006100039FA0600264B1B68DB05E1D400F032FAFC
:10062000801B6428F6D903200BE11E4A136A0121BE
:100630000B431362A368002B24D000F023FA0600BA
:10064000184B1B6A9B0737D400F01CFA801B194B10
:100650009842F5D90320F4E0052B09D0114B1A6A12
:1006600001218A431A621A6A03318A431A62E1E756
:100670000C4B1A6A04210A431A621A6A03390A43A4
:100680001A62D7E700F0FEF90600064B1B6A9B07CB
:1006900012D500F0F7F9801B064B9842F5D90320DC
:1006A000CFE0C04600100240FFFFFEFFFFFFFBFF50
:1006B0000070004088130000012D33D02368DB0652
:1006C00010D56369012B33D0053351D1654A536B83
:1006D00004218B435363536BF4318B43A169C900ED
:1006E0000B435363236A002B00D1B0E05D4A51688D
:1006F0000C220A40082A00D18AE0022B4FD0594A26
:10070000136859490B40136000F0BCF90400554BC5
:100710001B689B017AD500F0B5F9001B0228F6D9B9
:1007200003208EE04F4AD36950490B40D361C5E79F
:100730004C4B5A6B04210A435A635A6B03390A43E0
:100740005A6300F09FF90500464B5B6B9B0706D48C
:1007500000F098F9401B0228F6D9032071E04149C6
:100760004B6BF8229343A269D20013434B63B9E762
:100770003C4B5A6B04210A435A635A6B03398A4330
:100780005A6300F07FF90500364B5B6B9B07A9D5D8
:1007900000F078F9401B0228F6D9032051E0314AD5
:1007A000136831490B40136000F06CF905002D4BC4
:1007B0001B689B0106D500F065F9401B0228F6D99D
:1007C00003203EE0274BDA6A0F218A43E16A0A439D
:1007D000DA625A6826490A40A16A606A01430A43FC
:1007E0005A601968802252040A431A6000F04AF9DC
:1007F00004001C4B1B689B0106D400F043F9001B4E
:100800000228F6D903201CE000201AE0002018E09E
:10081000012B1ED0134B5A68D86A80235B02134009
:10082000616A8B4217D10F230340E16A8B4214D1D6
:10083000F0239B031A40A36A9A4210D1002000E0E3
:10084000012002B070BD0120FBE70120F9E7002084
:10085000F7E70120F5E70120F3E70120F1E70120A8
:10086000EFE7C04600100240FFFFFFFEFFFFFFEF73
:10087000FFFFC2FF10B5104B5A680C231340082B22
:1008800001D00E4810BD910C073319400C48445C50
:100890000949C96A0B400B49C95CD20304D5074812
:1008A000FFF7A0FC6043EDE76201121B93019B1A66
:1008B000DB001B191802E5E70010024000127A0065
:1008C000100C0008000C000870B504000D00002892
:1008D00000D17EE0434B1A68012313408B420AD2B9
:1008E00040490B68012293432B430B600B681A406D
:1008F000AA4200D06FE023689A070ED55B0705D5A2
:10090000394A5168E023DB000B435360364A536891
:10091000F0218B43A1680B4353602368DB072DD57F
:100920006368012B1ED0022B22D02F4A1268920737
:1009300053D52D494A680320824313434B6000F08E
:10094000A1F80600284B5B680C221A4063689B00E4
:100950009A4213D000F096F8801B244B9842F1D9AC
:10096000032035E0204A12689203E2D401202FE0F0
:100970001D4A12689201DCD4012029E0194B1A6843
:1009800001231340AB4209D916490B680122934356
:100990002B430B600B681A40AA4220D123685B07E7
:1009A00006D5114A536812490B40E1680B43536066
:1009B000FFF760FF0C4B5A6812090F2313400D4AD2
:1009C000D35CD8400C4B1860032000F017F80020CF
:1009D00070BD0120FCE70120FAE70120F8E70120C3
:1009E000F6E7C046002002400010024088130000D5
:1009F000FFF8FFFF200C00080800002010B50400DD
:100A00000F4B1978FA208000FFF7ECFB01000D4B2B
:100A10001868FFF7E7FB00F08BF800280DD1032CD6
:100A200001D901200AE0013000222100404200F0FB
:100A30007BF8054B1C60002000E0012010BDC04683
:100A400000000020080000200400002010B5064A25
:100A5000136810210B4313600320FFF7CFFFFFF74C
:100A6000A3FC002010BDC04600200240034A1168CC
:100A7000034B1B785B1813607047C04628000020AA
:100A800000000020014B18687047C0462800002075
:100A900070B5002811DB8308134DC0339B005C59EF
:100AA00003221040C000FC3216008640B443890186
:100AB0000A40824022435A5170BD0F230340083B35
:100AC0009B0806339B00094A944663445C680322F2
:100AD0001040C000FC3215008540AC4389010A403B
:100AE000824022435A60E7E700E100E000ED00E0C9
:100AF000013880235B0498420FD2094A50600948AC
:100B0000036A1B021B0AC02109060B430362002370
:100B1000936007331360002070470120FCE7C04654
:100B200010E000E000ED00E010B5FFF7B1FF10BDF0
:100B300010B5FFF7DDFF10BD704700000D4885467A
:100B4000FFF7FAFF0C480D490D4A002302E0D45884
:100B5000C4500433C4188C42F9D30A4A0A4C002307
:100B600001E013600432A242FBD300F019F8FFF752
:100B700008FCFEE700200020000000200C00002000
:100B8000380C00080C0000202C000020FEE70300B9
:100B90008218934200D1704719700133F9E70000C1
:100BA00070B500260C4C0D4D641BA410A64209D153
:100BB000002600F019F80A4C0A4D641BA410A64246
:100BC00005D170BDB300EB5898470136EEE7B3008E
:100BD000EB5898470136F2E7300C0008300C00085B
:100BE000340C0008300C0008F8B5C046F8BC08BC4E
:100BF0009E467047F8B5C046F8BC08BC9E46704794
:100C00000102030405060708090A0B0C0D0E0F105C
:100C100002030405060708090A0B0C0D0E0F10103D
:100C2000000000000000000001020304060708099C
:040C3000E9000008CF
:040C3400C1000008F3
:0C0C3800010000000400000000127A001F
:0400000508000B3DA7
:00000001FF
